S00D00006D6963726F2E73726563FD
S113000078C0000095C0000093C0000091C00000BB
S11300108FC000008DC000008BC0000089C00000AC
S113002087C0000085C0000083C0000081C00000BC
S11300307FC000007DC000007BC0000079C00000CC
S113004077C00000F7C2000073C0000071C0000058
S11300506FC000006DC000006BC0000069C00000EC
S113006067C0000065C0000063C0000061C00000FC
S11300705FC000008FC000005BC0000059C00000DA
S113008057C0000055C0000053C0000051C000001C
S11300904FC000004DC000004BC0000049C000002C
S11300A047C0000045C0000043C0000041C000003C
S11300B03FC000003DC000003BC0000039C000004C
S11300C037C0000035C0000033C0000031C000005C
S11300D02FC000002DC000002BC0000029C000006C
S11300E027C000002F04330437043B043F04650495
S11300F0BD0411241FBECFEFD1E2DEBFCDBF00E0AF
S11301000CBF12E0A0E0B2E0E0E9FAE000E00BBFCF
S113011002C007900D92A83AB107D9F725E0A8EAE2
S1130120B2E001C01D92A130B207E1F7E8D0AEC43D
S113013067CFE4E6F0E080818E7F8083ECE7F0E037
S1130140808180668083EAE7F0E08081876880832D
S11301501092A8020895EAE7F0E080818F77808307
S11301608081877F808308958091C802803121F443
S1130170EAEAF2E0168E15AE1092A902ECE7F0E07E
S11301808081807F87608083EAE7F0E080818864F3
S1130190808308951F920F920FB60F9211240BB60D
S11301A00F922F933F938F939F93AF93BF93EF93AC
S11301B0FF93809179008093A8029091A9029111F4
S11301C023C0EAEAF2E0968DA92FB0E0A655BD4F10
S11301D01E968C93278D30A1280F311D30A3278FB5
S11301E09F5F968FECE7F0E08081807F8083808141
S11301F0807F86608083EAE7F0E08081806480838A
S113020081E08093A9021DC0EAEAF2E095ADA92F2E
S1130210B0E0A655BD4F9D968C9326AD37AD280F03
S1130220311D37AF26AF9F5F95AFECE7F0E08081DB
S1130230807F80831092A902EAE7F0E08081877FC3
S11302408083FF91EF91BF91AF919F918F913F91E7
S11302502F910F900BBE0F900FBE0F901F9018950B
S1130260E1E6F0E08081806880830FB6F894A89579
S113027080916000886180936000109260000FBEDE
S113028084B18F6084B98CEF8AB98FE387B987B161
S11302908F7387B90895EAEAF2E081E0808381836D
S11302A01BD11092EC021092EB021092EA0210920F
S11302B0ED021092EE021092EF0208958091AB02CB
S11302C0833049F0843071F0823081F48FE740D07C
S11302D08FE785D00BC0A3D13EDF8FE739D08FE7FE
S11302E07ED004C08FE734D08FE779D08091AA0202
S11302F0833011F41EDF82D11092EF020895B0DF33
S113030060E875E280E090E0CBD1C5DF6BD111DF0E
S11303102FEF89E698E1215080409040E1F700C03A
S1130320000078948091ED02811178D28091EF02DF
S11303308111C4DF8091EC028823A1F3DDD01092F7
S1130340EC02F0CF4AEF64E082EF92E015C2089528
S11303509BB193709BB99BB1882314F424E001C032
S113036020E0922B9BB99BB186FF02C028E001C01C
S113037020E0922B9BB99BB185FF02C020E101C014
S113038020E0922B9BB99BB184FF02C020E201C004
S113039020E0922B9BB99BB183FF02C020E401C0F3
S11303A020E0922B9BB99BB182FF02C020E801C0E0
S11303B020E0922B9BB995B19C7F95B995B181FFB3
S11303C002C021E001C020E0922B95B995B180FFD5
S11303D002C082E001C080E0892B85B9089595B1FF
S11303E0937F95B995B1882314F424E001C020E0EB
S11303F0922B95B995B186FF02C028E001C020E098
S1130400922B95B998B1907C98B998B185FF02C0A8
S113041021E001C020E0922B98B998B184FF02C07A
S113042022E001C020E0922B98B998B183FF02C06A
S113043020E201C020E0922B98B998B182FF02C05B
S113044020E101C020E0922B98B998B181FF02C04D
S113045028E001C020E0922B98B998B180FF02C037
S113046084E001C080E0892B88B90895CF93DF939D
S1130470811117C0CAEAD2E01F821E821D821C822B
S11304808FE78B838A8364DF81E0888789878A8703
S113049080E48B8780E490E09D878C8718A21F8E70
S11304A018C0CAEAD2E01EA21DA21CA21BA28FE79A
S11304B08AA389A394DF1EA21DA281E08FA388A72B
S11304C089A780E48AA780E490E09CA78BA71FAE4D
S11304D01EAEDF91CF91089580E0C8DF81E0C6CFE2
S11304E00895CF93DF93CAEAD2E08A8131DF89A1EC
S11304F076DFDF91CF910895CF93DF93EAEAF2E0BC
S1130500248135813783268383A194A196A385A36F
S1130510B281B383A1A1A2A3678D70A172956295E4
S11305206F7067277F70672746AD57AD5295429528
S11305304F7045275F704527C2EFD2E06883498337
S113054010A2178E17AE16AE64857585269FA0017E
S1130550279F500D369F500D11249A01552314F4F2
S1130560215C3F4F022E232F000C221F330B000C63
S1130570221F331F2B0FEAEAF2E022832093F402B6
S113058043A554A5849F9001859F300D949F300D01
S11305901124C90199230CF4CF96082E892F000C3D
S11305A0881F990B000C881F991F8A0F8093CB0218
S11305B08093F50296DF8091FC029091FD020196F2
S11305C09093FD028093FC028091FC029091FD02C5
S11305D00A9729F4B7DE1092FD021092FC02DF9113
S11305E0CF910895E1E8F0E08081886080838FEF07
S11305F099EF90938900809388000895B5DD109257
S1130600FE02E1E8F0E08081887F8083AFE6B0E01D
S11306108C9182608C938081816080830895E1E86D
S1130620F0E08081887F8083EFE6F0E080818D7F39
S1130630808308951F920F920FB60F9211240BB668
S11306400F922F933F934F935F936F937F938F9367
S11306509F93AF93BF93EF93FF938091FE028F30EC
S113066031F481E08093EC021092FE0206C07CDD3E
S11306708091FE028F5F8093FE02FF91EF91BF9104
S1130680AF919F918F917F916F915F914F913F9126
S11306902F910F900BBE0F900FBE0F901F901895C7
S11306A0DC01CB01880F991FAA1FBB1F880F991F5C
S11306B0AA1FBB1F9C01AD01220F331F441F551FEE
S11306C0220F331F441F551F60E074E284EF90E053
S11306D0B3D12150F8941092C5002093C400E1ECEA
S11306E0F0E0808188698083E2ECF0E080818660BC
S11306F080837894109202031092010310920003F5
S11307001092FF020895FC0181E08093EE02DF0164
S11307100D900020E9F71197AE1BBF0B42E04A0F82
S1130720409301031092FF02A3E0B3E08EEF8C9399
S113073011964C9322E030E0842F90E0281739077B
S113074048F48081D901AD5FBC4F8C932F5F3F4F3C
S11307503196F2CFE1ECF0E0808188608083808183
S113076080648083809103038093C6008091FF029C
S11307708F5F8093FF020895DC0181E08093EE0295
S113078083E0860F809301031092FF02E3E0F3E01D
S11307909FEF90838183428320E030E0462F50E036
S11307A0241735075CF4FD01E20FF31F9081F90172
S11307B0EA5FFC4F90832F5F3F4FF0CFE1ECF0E016
S11307C0808188608083808180648083809103033A
S11307D08093C6008091FF028F5F8093FF0208958B
S11307E020E030E040E08091020390E00197281778
S11307F0390744F4F901EE5FFB4F8081480F2F5F06
S11308003F4FF1CFFC01EE5FFB4F8081481711F0A1
S113081080E001C081E0109200030895CF93DF933C
S1130820DFDF882309F4FCC09091AA0280910404BC
S1130830981739F0EAEAF2E09183808381E08093AB
S1130840EF022091AA02822F90E08730910508F0F0
S1130850DCC0FC018827EE58FF4F8F4F0FC180E0AA
S113086092E051DFE0C08EE092E04DDFDCC08DE12C
S113087092E049DFD8C08BE292E045DFD4C0C2E009
S1130880D4E08B8165DD8C81AADD8D81EAEAF2E01A
S1130890808787A38E81818780A79F81928791A774
S11308A090E04385489F9001499F300D112435877E
S11308B0248742A5489F9001499F300D112434A7F5
S11308C023A78EE392E01FDFAEC080910504482F7A
S11308D050E05093EB024093EA02813071F028F02B
S11308E08230A9F08330E9F026C01092EB02109216
S11308F0EA0281E08093F00228C084E190E09093C2
S1130900EB028093EA0281E08093F0021EC088E249
S113091090E09093EB028093EA0281E08093F002EE
S113092014C08CE390E09093EB028093EA0281E0A0
S11309308093F0020AC0EAEAF2E0218381E0808336
S11309408093EF028CE492E0DEDE8091AA0285308F
S113095009F069C0A2E0B4E014968C911497EAEA15
S1130960F2E0808787A315968C911597818780A7DD
S113097016968C91828781A756C080910504482FD2
S113098050E05093EB024093EA02813071F028F07A
S11309908230A9F08330E9F026C01092EB02109265
S11309A0EA0281E08093F10228C084E190E0909310
S11309B0EB028093EA0281E08093F1021EC088E298
S11309C090E09093EB028093EA0281E08093F1023D
S11309D014C08CE390E09093EB028093EA0281E0F0
S11309E08093F1020AC0EAEAF2E0218381E0808385
S11309F08093EF028CE492E086DE8091AA02863036
S1130A0091F485E692E07FDE0EC0EAEAF2E081E04E
S1130A10818380838093EF0284E792E074DE03C0D5
S1130A2086E892E070DE1092ED02109200031092BC
S1130A300203DF91CF910895A1E21A2EAA1BBB1BDA
S1130A40FD010DC0AA1FBB1FEE1FFF1FA217B30796
S1130A50E407F50720F0A21BB30BE40BF50B661FAC
S1130A60771F881F991F1A9469F760957095809570
S1130A7090959B01AC01BD01CF010895EE0FFF1FBE
S1130A80881F8BBF0790F691E02D1994F894FFCF3F
S1130A90554E415641494C41424C450D0A00535470
S1130AA0414E444259204D4F44450D0A004D414E9C
S1130AB055414C204D4F44450D0A004C494E4520AC
S1130AC0464F4C4C4F57204D4F44450D0A0054554A
S1130AD04E494E47204D4F44450D0A00494E56415C
S1130AE04C4944204D454D4F5259204144445245B0
S1130AF053530D0A004C4F4144494E47204441543E
S1130B00410D0A0043415254204D4F444520455263
S1130B10524F520D0A00434845434B2053554D2034
S1130B204552524F520D0A00454D4547454E4359D3
S10B0B302053544F500D0A003C
S9030000FC
